{
  "_format": "hh-sol-artifact-1",
  "contractName": "Welcomy",
  "sourceName": "contracts/Welcomy.sol",
  "abi": [
    {
      "inputs": [],
      "stateMutability": "nonpayable",
      "type": "constructor"
    },
    {
      "anonymous": false,
      "inputs": [
        {
          "indexed": true,
          "internalType": "address",
          "name": "owner",
          "type": "address"
        },
        {
          "indexed": true,
          "internalType": "address",
          "name": "approved",
          "type": "address"
        },
        {
          "indexed": true,
          "internalType": "uint256",
          "name": "tokenId",
          "type": "uint256"
        }
      ],
      "name": "Approval",
      "type": "event"
    },
    {
      "anonymous": false,
      "inputs": [
        {
          "indexed": true,
          "internalType": "address",
          "name": "owner",
          "type": "address"
        },
        {
          "indexed": true,
          "internalType": "address",
          "name": "operator",
          "type": "address"
        },
        {
          "indexed": false,
          "internalType": "bool",
          "name": "approved",
          "type": "bool"
        }
      ],
      "name": "ApprovalForAll",
      "type": "event"
    },
    {
      "anonymous": false,
      "inputs": [
        {
          "indexed": false,
          "internalType": "uint256",
          "name": "apartmentId",
          "type": "uint256"
        },
        {
          "indexed": false,
          "internalType": "string",
          "name": "latitude",
          "type": "string"
        },
        {
          "indexed": false,
          "internalType": "string",
          "name": "longitude",
          "type": "string"
        }
      ],
      "name": "NewApartment",
      "type": "event"
    },
    {
      "anonymous": false,
      "inputs": [
        {
          "indexed": false,
          "internalType": "uint256",
          "name": "ratingId",
          "type": "uint256"
        },
        {
          "indexed": false,
          "internalType": "string",
          "name": "message",
          "type": "string"
        }
      ],
      "name": "NewRating",
      "type": "event"
    },
    {
      "anonymous": false,
      "inputs": [
        {
          "indexed": false,
          "internalType": "address",
          "name": "owner",
          "type": "address"
        },
        {
          "indexed": false,
          "internalType": "uint256",
          "name": "reservationId",
          "type": "uint256"
        }
      ],
      "name": "NewReservation",
      "type": "event"
    },
    {
      "anonymous": false,
      "inputs": [
        {
          "indexed": true,
          "internalType": "address",
          "name": "from",
          "type": "address"
        },
        {
          "indexed": true,
          "internalType": "address",
          "name": "to",
          "type": "address"
        },
        {
          "indexed": true,
          "internalType": "uint256",
          "name": "tokenId",
          "type": "uint256"
        }
      ],
      "name": "Transfer",
      "type": "event"
    },
    {
      "inputs": [
        {
          "internalType": "uint256",
          "name": "",
          "type": "uint256"
        },
        {
          "internalType": "uint256",
          "name": "",
          "type": "uint256"
        }
      ],
      "name": "apartmentUnavailableDates",
      "outputs": [
        {
          "internalType": "bool",
          "name": "",
          "type": "bool"
        }
      ],
      "stateMutability": "view",
      "type": "function"
    },
    {
      "inputs": [
        {
          "internalType": "uint256",
          "name": "",
          "type": "uint256"
        }
      ],
      "name": "apartments",
      "outputs": [
        {
          "internalType": "uint256",
          "name": "pricePerNight",
          "type": "uint256"
        },
        {
          "components": [
            {
              "internalType": "string",
              "name": "latitude",
              "type": "string"
            },
            {
              "internalType": "string",
              "name": "longitude",
              "type": "string"
            }
          ],
          "internalType": "struct Welcomy.Coordinates",
          "name": "coordinates",
          "type": "tuple"
        },
        {
          "internalType": "address",
          "name": "owner",
          "type": "address"
        }
      ],
      "stateMutability": "view",
      "type": "function"
    },
    {
      "inputs": [
        {
          "internalType": "address",
          "name": "to",
          "type": "address"
        },
        {
          "internalType": "uint256",
          "name": "tokenId",
          "type": "uint256"
        }
      ],
      "name": "approve",
      "outputs": [],
      "stateMutability": "nonpayable",
      "type": "function"
    },
    {
      "inputs": [
        {
          "internalType": "address",
          "name": "owner",
          "type": "address"
        }
      ],
      "name": "balanceOf",
      "outputs": [
        {
          "internalType": "uint256",
          "name": "",
          "type": "uint256"
        }
      ],
      "stateMutability": "view",
      "type": "function"
    },
    {
      "inputs": [
        {
          "internalType": "uint256",
          "name": "_apartmentId",
          "type": "uint256"
        },
        {
          "internalType": "address",
          "name": "_newOwner",
          "type": "address"
        }
      ],
      "name": "changeApartmentOwnership",
      "outputs": [],
      "stateMutability": "nonpayable",
      "type": "function"
    },
    {
      "inputs": [
        {
          "internalType": "uint256",
          "name": "_apartmentId",
          "type": "uint256"
        },
        {
          "internalType": "uint256",
          "name": "_newPrice",
          "type": "uint256"
        }
      ],
      "name": "changeApartmentPrice",
      "outputs": [],
      "stateMutability": "nonpayable",
      "type": "function"
    },
    {
      "inputs": [
        {
          "internalType": "uint256",
          "name": "tokenId",
          "type": "uint256"
        }
      ],
      "name": "getApproved",
      "outputs": [
        {
          "internalType": "address",
          "name": "",
          "type": "address"
        }
      ],
      "stateMutability": "view",
      "type": "function"
    },
    {
      "inputs": [
        {
          "internalType": "uint256",
          "name": "_apartmentId",
          "type": "uint256"
        }
      ],
      "name": "getCoordinates",
      "outputs": [
        {
          "components": [
            {
              "internalType": "string",
              "name": "latitude",
              "type": "string"
            },
            {
              "internalType": "string",
              "name": "longitude",
              "type": "string"
            }
          ],
          "internalType": "struct Welcomy.Coordinates",
          "name": "",
          "type": "tuple"
        }
      ],
      "stateMutability": "view",
      "type": "function"
    },
    {
      "inputs": [],
      "name": "getNumberOfApartments",
      "outputs": [
        {
          "internalType": "uint256",
          "name": "",
          "type": "uint256"
        }
      ],
      "stateMutability": "view",
      "type": "function"
    },
    {
      "inputs": [],
      "name": "getNumberOfReservations",
      "outputs": [
        {
          "internalType": "uint256",
          "name": "",
          "type": "uint256"
        }
      ],
      "stateMutability": "view",
      "type": "function"
    },
    {
      "inputs": [
        {
          "internalType": "address",
          "name": "owner",
          "type": "address"
        },
        {
          "internalType": "address",
          "name": "operator",
          "type": "address"
        }
      ],
      "name": "isApprovedForAll",
      "outputs": [
        {
          "internalType": "bool",
          "name": "",
          "type": "bool"
        }
      ],
      "stateMutability": "view",
      "type": "function"
    },
    {
      "inputs": [
        {
          "internalType": "string",
          "name": "_latitude",
          "type": "string"
        },
        {
          "internalType": "string",
          "name": "_longitude",
          "type": "string"
        },
        {
          "internalType": "uint256",
          "name": "_pricePerNight",
          "type": "uint256"
        }
      ],
      "name": "listApartment",
      "outputs": [],
      "stateMutability": "nonpayable",
      "type": "function"
    },
    {
      "inputs": [
        {
          "internalType": "uint256",
          "name": "_apartmentId",
          "type": "uint256"
        },
        {
          "internalType": "uint256",
          "name": "_dayStart",
          "type": "uint256"
        },
        {
          "internalType": "uint256",
          "name": "_monthStart",
          "type": "uint256"
        },
        {
          "internalType": "uint256",
          "name": "_yearStart",
          "type": "uint256"
        },
        {
          "internalType": "uint256",
          "name": "_dayEnd",
          "type": "uint256"
        },
        {
          "internalType": "uint256",
          "name": "_monthEnd",
          "type": "uint256"
        },
        {
          "internalType": "uint256",
          "name": "_yearEnd",
          "type": "uint256"
        }
      ],
      "name": "makeReservation",
      "outputs": [],
      "stateMutability": "payable",
      "type": "function"
    },
    {
      "inputs": [],
      "name": "name",
      "outputs": [
        {
          "internalType": "string",
          "name": "",
          "type": "string"
        }
      ],
      "stateMutability": "view",
      "type": "function"
    },
    {
      "inputs": [
        {
          "internalType": "uint256",
          "name": "tokenId",
          "type": "uint256"
        }
      ],
      "name": "ownerOf",
      "outputs": [
        {
          "internalType": "address",
          "name": "",
          "type": "address"
        }
      ],
      "stateMutability": "view",
      "type": "function"
    },
    {
      "inputs": [
        {
          "internalType": "uint256",
          "name": "_reservationId",
          "type": "uint256"
        },
        {
          "internalType": "uint8",
          "name": "_rating",
          "type": "uint8"
        },
        {
          "internalType": "string",
          "name": "_message",
          "type": "string"
        }
      ],
      "name": "rateStay",
      "outputs": [],
      "stateMutability": "nonpayable",
      "type": "function"
    },
    {
      "inputs": [
        {
          "internalType": "uint256",
          "name": "",
          "type": "uint256"
        }
      ],
      "name": "ratings",
      "outputs": [
        {
          "internalType": "uint256",
          "name": "reservationId",
          "type": "uint256"
        },
        {
          "internalType": "uint256",
          "name": "timestamp",
          "type": "uint256"
        },
        {
          "internalType": "uint8",
          "name": "rating",
          "type": "uint8"
        }
      ],
      "stateMutability": "view",
      "type": "function"
    },
    {
      "inputs": [
        {
          "internalType": "uint256",
          "name": "",
          "type": "uint256"
        }
      ],
      "name": "reservations",
      "outputs": [
        {
          "internalType": "uint256",
          "name": "apartmentId",
          "type": "uint256"
        },
        {
          "internalType": "uint256",
          "name": "start",
          "type": "uint256"
        },
        {
          "internalType": "uint256",
          "name": "end",
          "type": "uint256"
        }
      ],
      "stateMutability": "view",
      "type": "function"
    },
    {
      "inputs": [
        {
          "internalType": "address",
          "name": "from",
          "type": "address"
        },
        {
          "internalType": "address",
          "name": "to",
          "type": "address"
        },
        {
          "internalType": "uint256",
          "name": "tokenId",
          "type": "uint256"
        }
      ],
      "name": "safeTransferFrom",
      "outputs": [],
      "stateMutability": "nonpayable",
      "type": "function"
    },
    {
      "inputs": [
        {
          "internalType": "address",
          "name": "from",
          "type": "address"
        },
        {
          "internalType": "address",
          "name": "to",
          "type": "address"
        },
        {
          "internalType": "uint256",
          "name": "tokenId",
          "type": "uint256"
        },
        {
          "internalType": "bytes",
          "name": "data",
          "type": "bytes"
        }
      ],
      "name": "safeTransferFrom",
      "outputs": [],
      "stateMutability": "nonpayable",
      "type": "function"
    },
    {
      "inputs": [
        {
          "internalType": "address",
          "name": "operator",
          "type": "address"
        },
        {
          "internalType": "bool",
          "name": "approved",
          "type": "bool"
        }
      ],
      "name": "setApprovalForAll",
      "outputs": [],
      "stateMutability": "nonpayable",
      "type": "function"
    },
    {
      "inputs": [
        {
          "internalType": "bytes4",
          "name": "interfaceId",
          "type": "bytes4"
        }
      ],
      "name": "supportsInterface",
      "outputs": [
        {
          "internalType": "bool",
          "name": "",
          "type": "bool"
        }
      ],
      "stateMutability": "view",
      "type": "function"
    },
    {
      "inputs": [],
      "name": "symbol",
      "outputs": [
        {
          "internalType": "string",
          "name": "",
          "type": "string"
        }
      ],
      "stateMutability": "view",
      "type": "function"
    },
    {
      "inputs": [
        {
          "internalType": "uint256",
          "name": "tokenId",
          "type": "uint256"
        }
      ],
      "name": "tokenURI",
      "outputs": [
        {
          "internalType": "string",
          "name": "",
          "type": "string"
        }
      ],
      "stateMutability": "view",
      "type": "function"
    },
    {
      "inputs": [
        {
          "internalType": "address",
          "name": "from",
          "type": "address"
        },
        {
          "internalType": "address",
          "name": "to",
          "type": "address"
        },
        {
          "internalType": "uint256",
          "name": "tokenId",
          "type": "uint256"
        }
      ],
      "name": "transferFrom",
      "outputs": [],
      "stateMutability": "nonpayable",
      "type": "function"
    },
    {
      "inputs": [
        {
          "internalType": "address",
          "name": "",
          "type": "address"
        }
      ],
      "name": "unclaimedEth",
      "outputs": [
        {
          "internalType": "uint256",
          "name": "",
          "type": "uint256"
        }
      ],
      "stateMutability": "view",
      "type": "function"
    },
    {
      "inputs": [
        {
          "internalType": "uint256",
          "name": "_amount",
          "type": "uint256"
        }
      ],
      "name": "withdrawMoney",
      "outputs": [],
      "stateMutability": "nonpayable",
      "type": "function"
    }
  ],
  "bytecode": "0x6080346200030b576001600160401b039060409080820183811182821017620002f5578252600781526020926657656c636f6d7960c81b84830152825183810181811083821117620002f5578452600481526357454c4360e01b85820152825190828211620002f55760008054926001958685811c95168015620002ea575b89861014620002d6578190601f9586811162000283575b5089908683116001146200021f57849262000213575b5050600019600383901b1c191690861b1781555b8151938411620001ff5784548581811c91168015620001f4575b88821014620001e05783811162000198575b5086928411600114620001325783949596509262000126575b5050600019600383901b1c191690821b1790555b516135d09081620003118239f35b01519050388062000104565b9190601f1984169685845280842093905b88821062000180575050838596971062000166575b505050811b01905562000118565b015160001960f88460031b161c1916905538808062000158565b80878596829496860151815501950193019062000143565b8582528782208480870160051c8201928a8810620001d6575b0160051c019086905b828110620001ca575050620000eb565b838155018690620001ba565b92508192620001b1565b634e487b7160e01b82526022600452602482fd5b90607f1690620000d9565b634e487b7160e01b81526041600452602490fd5b015190503880620000ab565b8480528a85208994509190601f198416865b8d8282106200026c575050841162000252575b505050811b018155620000bf565b015160001960f88460031b161c1916905538808062000244565b8385015186558c9790950194938401930162000231565b9091508380528984208680850160051c8201928c8610620002cc575b918a91869594930160051c01915b828110620002bd57505062000095565b8681558594508a9101620002ad565b925081926200029f565b634e487b7160e01b83526022600452602483fd5b94607f16946200007e565b634e487b7160e01b600052604160045260246000fd5b600080fdfe60806040818152600436101561001457600080fd5b600091823560e01c90816301ffc9a7146120c257508063067cf8321461201c57806306fdde0314611f75578063081812fc14611f40578063095ea7b314611d925780630bf3781814611d365780631fd3ff5114611d0657806323b872dd14611ce1578063241b59a514611c6257806342842e0e14611c2f5780634d559fa214611be35780634eacb84d1461181f578063548769211461177f5780635d30e84d146116d65780636352211e1461169957806370a08231146115e657806395d89b4114611504578063a22cb4651461142a578063abb8be1714611354578063ae78a08a14611311578063b7ae6d4d146106d6578063b88d4fde1461064c578063bc83ff2d14610268578063bef52ff71461024a578063c87b56dd146101c6578063d6288b9c146101a85763e985e9c51461014b57600080fd5b346101a457806003193601126101a45760ff8160209361016961222c565b610171612254565b73ffffffffffffffffffffffffffffffffffffffff91821683526005875283832091168252855220549151911615158152f35b5080fd5b50346101a457816003193601126101a4576020906007549051908152f35b50346101a45760206003193601126101a457906102469160043561021561021082600052600260205273ffffffffffffffffffffffffffffffffffffffff60406000205416151590565b612551565b8252600660205261022781832061242b565b918151610233816123ec565b5251918291602083526020830190612207565b0390f35b50346101a457816003193601126101a4576020906008549051908152f35b5090346106495760606003193601126106495767ffffffffffffffff6004358181116106455761029c9036906004016122fc565b91602435818111610641576102b59036906004016122fc565b9186516102c18161239e565b6102cc36878761251a565b81526102d936858561251a565b60208201528751916102ea836123d0565b6044358352602083019182523389840152600754680100000000000000008110156105615780600161031f920160075561232a565b92909261062e5783518355600183019051805191825184811161061a578b6103478354612364565b601f81116105ea575b505060208c601f8311600114610580579060209583610575575b50506000198260011b9260031b1c19161790555b01518051918211610561579089916103996002850154612364565b601f8111610523575b50602090601f831160011461049c57918073ffffffffffffffffffffffffffffffffffffffff95926003948d92610491575b50506000198260011b92851b1c19161760028201555b01920151167fffffffffffffffffffffffff000000000000000000000000000000000000000082541617905560075492600019840193841161047d5791869161046a610477947fba83258f4deb4b13ef3dad2912be4eaf629d888911316ff3e14e294623d640c99899519788978852606060208901526060880191612d4b565b9285840390860152612d4b565b0390a180f35b602486634e487b7160e01b81526011600452fd5b0151905038806103d4565b90600285018b5260208b20918b5b601f198516811061050857509273ffffffffffffffffffffffffffffffffffffffff959260019260039583601f198116106104f0575b505050811b0160028201556103ea565b015160001960f884881b161c191690553880806104e0565b8183015184558d9550600190930192602092830192016104aa565b61055190600286018c5260208c20601f850160051c81019160208610610557575b601f0160051c0190612d34565b386103a2565b9091508190610544565b602489634e487b7160e01b81526041600452fd5b01519050388061036a565b91929394601f19841685845260208420935b8181106105d25750916001939185602098979694106105b9575b505050811b01905561037e565b015160001960f88460031b161c191690553880806105ac565b92936020600181928786015181550195019301610592565b60208285610613945220601f840160051c8101916020851061055757601f0160051c0190612d34565b8b38610350565b60248c634e487b7160e01b81526041600452fd5b602489634e487b7160e01b815280600452fd5b8480fd5b8280fd5b80fd5b82346106495760806003193601126106495761066661222c565b61066e612254565b906064359060443567ffffffffffffffff83116106415736602384011215610641576106d3936106ab6106ce94369060248160040135910161251a565b926106be6106b98433612705565b612622565b6106c98383836127f1565b612b09565b612693565b80f35b509060e060031936011261064957600435916106f56007548410612db7565b604492602461070981358635606435612e98565b9061071b60843560a43560c435612e98565b92620151809661075188420461073081613175565b50509061074861073f82613175565b50929050613175565b93915050612e98565b84101580611308575b156112c6576018603c8061076e8789612b90565b04040491849561077d846130e4565b9361078a89519586612408565b808552601f199a8b61079b836130e4565b0198602099368b8901378b905b83821061128d575050506107bc858461311f565b1561124c576107ca8361232a565b5054818102918183041490151715611239576107e7903414612e02565b73ffffffffffffffffffffffffffffffffffffffff60036108078461232a565b500154168952600b87528789208054903482018092116112265755600854958851948886019567ffffffffffffffff9681811088821117611213578b528b815233156111d3579493929190889061088a61088483600052600260205273ffffffffffffffffffffffffffffffffffffffff60406000205416151590565b15612e4d565b6108ba61088483600052600260205273ffffffffffffffffffffffffffffffffffffffff60406000205416151590565b338d5260038b528a8d8d8082209161093a6106ce60019c8d98868a80985401905580855260028852858520337fffffffffffffffffffffffff00000000000000000000000000000000000000008254161790558033867fddf252ad1be2c89b69c2b068fc378daa952ba7f163c4a11628f55a4df523b3ef8180a43361296d565b80925b61118f575b5093505050505192610953846123d0565b83528883019081528983019182526008546801000000000000000081101561117c5780866109849201600855612193565b93909361116a5751835551848301555190600201556109a285612193565b5054876109ae87612be4565b916109b881612be4565b906109c28161232a565b50906109cd9061232a565b50866109d88b612193565b5001546109e490612be4565b906109ee8b612193565b50600201546109fc90612be4565b85517f3c3f786d6c2076657273696f6e3d22312e302220656e636f64696e673d225554818f01527f462d38223f3e0000000000000000000000000000000000000000000000000000968101969096527f3c73766720786d6c6e733d22687474703a2f2f7777772e77332e6f72672f323060468701527f30302f7376672220786d6c6e733a786c696e6b3d22687474703a2f2f7777772e60668701527f77332e6f72672f313939392f786c696e6b222076657273696f6e3d22312e312260868701527f2076696577426f783d223020302034303020343030222070726573657276654160a68701527f7370656374526174696f3d22784d6964594d6964206d656574223e000000000060c68701527f3c7374796c6520747970653d22746578742f637373223e3c215b43444154415b60e18701527f74657874207b20666f6e742d66616d696c793a206d6f6e6f73706163653b20666101018701527f6f6e742d73697a653a20323170783b7d5d5d3e3c2f7374796c653e00000000006101218701527f3c7465787420783d2235252220793d22323525223e57656c636f6d792023000061013c8701528651959687969194918a918f9161015a91610bc6908290848d019086016121e4565b8901977f3c2f746578743e000000000000000000000000000000000000000000000000009889809382015261016181017f3c7465787420783d2235252220793d22333525223e61706172746d656e744964905261018181017f3a2000000000000000000000000000000000000000000000000000000000000090528151918261018395868401920191610c58926121e4565b019182015261018a81017f3c7465787420783d2235252220793d22343525223e6c617469747564653a200090526101a901910190610c959161339b565b848152600781017f3c7465787420783d2235252220793d22353525223e6c6f6e6769747564653a2090526027019060020190610cd09161339b565b8381527f3c7465787420783d2235252220793d22363525223e73746172743a20000000006007820152815191610d0e90839060238401908f016121e4565b01826023820152602a81017f3c7465787420783d2235252220793d22373525223e656e643a200000000000009052815191828c888401920191610d50926121e4565b019084820152604b81017f3c2f7376673e0000000000000000000000000000000000000000000000000000905203603181018252605101610d919082612408565b610d9a9061341e565b87519081888101917f646174613a696d6167652f7376672b786d6c3b6261736536342c0000000000008352805190818b603a8501920191610dda926121e4565b810103601a81018352603a01610df09083612408565b610df987612be4565b9089519283928a84017f7b226e616d65223a2257656c636f6d79202300000000000000000000000000009052805190818c60328701920191610e3a926121e4565b830190603282017f222c20226465736372697074696f6e223a225468616e6b20796f7520666f72209052605282017f63686f6f73696e6720757320666f7220796f757220726563656e7420737461799052607282017f2e205765206c6f6f6b20666f727761726420746f2077656c636f6d696e6720799052609282017f6f7521222c2022696d616765223a220000000000000000000000000000000000905251918260a18301610ee9926121e4565b0160a181017f227d00000000000000000000000000000000000000000000000000000000000090520360838101825260a301610f259082612408565b610f2e9061341e565b90875180928882017f646174613a6170706c69636174696f6e2f6a736f6e3b6261736536342c0000009052805190818a603d8501920191610f6e926121e4565b810103601d81018352603d01610f849083612408565b610fb186600052600260205273ffffffffffffffffffffffffffffffffffffffff60406000205416151590565b156111035750848852600686528688209381519384116110f15750610fd68454612364565b601f81116110c3575b508598601f8411600114611048575082889981927f22128ec93aae9d85f349dcf8b19af6c27f1f2f5c2a013377abbb928592e8dfb39a9361103b575b505060001991921b9260031b1c19161790555b825191338352820152a180f35b015191506000193861101b565b839293169884895286892091895b8b81106110ae5750837f22128ec93aae9d85f349dcf8b19af6c27f1f2f5c2a013377abbb928592e8dfb39a9b10611095575b505050811b01905561102e565b015160001960f88460031b161c19169055388080611088565b81830151845592850192918801918801611056565b6110eb90858a52878a20601f860160051c81019189871061055757601f0160051c0190612d34565b38610fdf565b88634e487b7160e01b81526041600452fd5b867f45524337323155524953746f726167653a2055524920736574206f66206e6f6e608492602e888c519462461bcd60e51b865260048601528401528201527f6578697374656e7420746f6b656e0000000000000000000000000000000000006064820152fd5b878c634e487b7160e01b815280600452fd5b878c634e487b7160e01b81526041600452fd5b84518310156111ce57888152600a84528181206111c4946111b0858861310b565b51835252208460ff198254161790556130fc565b8b908d8f8561093d565b610942565b6064887f4552433732313a206d696e7420746f20746865207a65726f2061646472657373888d8f519362461bcd60e51b8552816004860152840152820152fd5b888d634e487b7160e01b81526041600452fd5b868b634e487b7160e01b81526011600452fd5b858a634e487b7160e01b81526011600452fd5b6064887f556e617661696c61626c652064617465730000000000000000000000000000008660118a8e519462461bcd60e51b86526004860152840152820152fd5b80611298838a61310b565b528281018091116112b3576112ad90916130fc565b906107a8565b888d634e487b7160e01b81526011600452fd5b827f496e76616c696420646174650000000000000000000000000000000000000000606492600c89519362461bcd60e51b855260206004860152840152820152fd5b5083851161075a565b50346101a45760206003193601126101a4578060209273ffffffffffffffffffffffffffffffffffffffff61134461222c565b168152600b845220549051908152f35b5090346106495760206003193601126106495760043590600754821015610649576007905260021b90817fa66cc928b5edb82af9bd49922954155ab7b0942694bea4ce44661d9a8736c68801549073ffffffffffffffffffffffffffffffffffffffff7fa66cc928b5edb82af9bd49922954155ab7b0942694bea4ce44661d9a8736c68b6114037fa66cc928b5edb82af9bd49922954155ab7b0942694bea4ce44661d9a8736c68986016124d2565b9401541661142282519485948552606060208601526060850190612277565b918301520390f35b50346101a457806003193601126101a45761144361222c565b602435908115158092036115005773ffffffffffffffffffffffffffffffffffffffff16918233146114bd57338452600560205280842083855260205280842060ff1981541660ff8416179055519081527f17307eab39ab6107e8899845ad3d59bd9653f200f220920489ca2b5937696c3160203392a380f35b6064905162461bcd60e51b815260206004820152601960248201527f4552433732313a20617070726f766520746f2063616c6c6572000000000000006044820152fd5b8380fd5b50346101a457816003193601126101a45780519082600180549161152783612364565b808652928281169081156115be5750600114611562575b50505061155082610246940383612408565b51918291602083526020830190612207565b94508085527fb10e2d527612073b26eecdfd717e6a320cf44b4afac2b0732d9fcbe2b7fa0cf65b8286106115a657505050611550826020610246958201019461153e565b80546020878701810191909152909501948101611589565b61024697508693506020925061155094915060ff191682840152151560051b8201019461153e565b50346101a45760206003193601126101a45773ffffffffffffffffffffffffffffffffffffffff61161561222c565b16801561163057828291602094526003845220549051908152f35b6084825162461bcd60e51b815260206004820152602960248201527f4552433732313a2061646472657373207a65726f206973206e6f74206120766160448201527f6c6964206f776e657200000000000000000000000000000000000000000000006064820152fd5b50346101a45760206003193601126101a45760209073ffffffffffffffffffffffffffffffffffffffff6116ce60043561259c565b915191168152f35b50346101a45760206003193601126101a4576004356009548110156106455760039060096060945202807f6e1540171b6c0c960b71a7020d9f60077f6af931a8bbf590da0223dacf75c7af01549160ff7f6e1540171b6c0c960b71a7020d9f60077f6af931a8bbf590da0223dacf75c7b17f6e1540171b6c0c960b71a7020d9f60077f6af931a8bbf590da0223dacf75c7b0840154930154169181519384526020840152820152f35b50346101a45760206003193601126101a45781808080600435338252600b6020526117af81878420541015612e02565b338252600b6020528582206117c5828254612b90565b9055335af16117d261293d565b50156117dc575080f35b6064905162461bcd60e51b815260206004820152601460248201527f4661696c656420746f2073656e642045746865720000000000000000000000006044820152fd5b509034610649576060600319360112610649576004359160249283359160ff83168093036115005760443567ffffffffffffffff8111610641576118679036906004016122fc565b919095600854841015611ba15773ffffffffffffffffffffffffffffffffffffffff93846118948261259c565b163303611b5e5760026118a682612193565b5001546118bb62015180420461073081613175565b10611b5a57600b861015611b17578251956118d5876123d0565b81875260209687810142815285820192835260095468010000000000000000811015611b04576001810180600955811015611af157917f6e1540171b6c0c960b71a7020d9f60077f6af931a8bbf590da0223dacf75c7b191600360ff9460098e52029151827f6e1540171b6c0c960b71a7020d9f60077f6af931a8bbf590da0223dacf75c7af0155517f6e1540171b6c0c960b71a7020d9f60077f6af931a8bbf590da0223dacf75c7b08201550191511660ff198254161790556119988161259c565b5080876119a48261259c565b9682825260048952858220977fffffffffffffffffffffffff0000000000000000000000000000000000000000988981541690551680825260038952858220976000199889815401905583835260028a528683209081541690557fddf252ad1be2c89b69c2b068fc378daa952ba7f163c4a11628f55a4df523b3ef8280a460068652611a3283882054612364565b611a93575b50600954938401938411611a815750946104779186807ff139a014d3e9fcc12a189ea7a12572e3703a21ff68d31530a654a598b9073e299798519687968752860152840191612d4b565b85634e487b7160e01b81526011600452fd5b86526006855285828120611aa78154612364565b80611ab4575b5050611a37565b601f8111600114611aca5750555b853880611aad565b818352878320611ae591601f0160051c810190600101612d34565b81878120915555611ac2565b858b634e487b7160e01b81526032600452fd5b858b634e487b7160e01b81526041600452fd5b50600e606492519162461bcd60e51b8352602060048401528201527f496e76616c696420726174696e670000000000000000000000000000000000006044820152fd5b8680fd5b506015606492519162461bcd60e51b8352602060048401528201527f596f7520617265206e6f7420746865206f776e657200000000000000000000006044820152fd5b6013606492519162461bcd60e51b8352602060048401528201527f496e76616c6964207265736572766174696f6e000000000000000000000000006044820152fd5b823461064957611c2a611bf5366122a4565b9190611c2573ffffffffffffffffffffffffffffffffffffffff6003611c1a8461232a565b500154163314612d6c565b61232a565b505580f35b50346101a4576106ce6106d391611c45366122ba565b91925192611c52846123ec565b8684526106be6106b98433612705565b50346101a45760031936011261064957600435600380611cb3611c83612254565b93611c25611c908261232a565b5073ffffffffffffffffffffffffffffffffffffffff9586910154163314612d6c565b500191167fffffffffffffffffffffffff000000000000000000000000000000000000000082541617905580f35b8234610649576106d3611cf3366122ba565b91611d016106b98433612705565b6127f1565b50346101a45760ff81602093611d1b366122a4565b908252600a8652828220908252855220541690519015158152f35b50346101a45760206003193601126101a45761024690611d7f6001611d78600435606060208651611d668161239e565b8281520152611c256007548210612db7565b50016124d2565b9051918291602083526020830190612277565b50346101a457806003193601126101a457611dab61222c565b6024359173ffffffffffffffffffffffffffffffffffffffff908180611dd08661259c565b16931692808414611ed757803314908115611eb8575b5015611e4f5783855260046020528420827fffffffffffffffffffffffff0000000000000000000000000000000000000000825416179055611e278361259c565b167f8c5be1e5ebec7d5bd14f71427d1e84f3dd0314c0f7b2291e5b200ac8c7c3b9258480a480f35b6084905162461bcd60e51b815260206004820152603d60248201527f4552433732313a20617070726f76652063616c6c6572206973206e6f7420746f60448201527f6b656e206f776e6572206f7220617070726f76656420666f7220616c6c0000006064820152fd5b90508552600560205280852033865260205260ff818620541638611de6565b6084825162461bcd60e51b815260206004820152602160248201527f4552433732313a20617070726f76616c20746f2063757272656e74206f776e6560448201527f72000000000000000000000000000000000000000000000000000000000000006064820152fd5b50346101a45760206003193601126101a45760209073ffffffffffffffffffffffffffffffffffffffff6116ce6004356125cb565b50346101a457816003193601126101a457805190828054611f9581612364565b808552916001918083169081156115be5750600114611fc05750505061155082610246940383612408565b80809650527f290decd9548b62a8d60345a988386fc84ba6bc95484008f6362f93160ef3e5635b82861061200457505050611550826020610246958201019461153e565b80546020878701810191909152909501948101611fe7565b50346101a45760206003193601126101a4576004356008548110156106455760039060086060945202807ff3f7a9fe364faab93b216da50a3214154f22a0a2b415b23a84c8169e8b636ee30154917ff3f7a9fe364faab93b216da50a3214154f22a0a2b415b23a84c8169e8b636ee57ff3f7a9fe364faab93b216da50a3214154f22a0a2b415b23a84c8169e8b636ee48301549201549181519384526020840152820152f35b8390346101a45760206003193601126101a4576004357fffffffff00000000000000000000000000000000000000000000000000000000811680910361064557602092507f80ac58cd000000000000000000000000000000000000000000000000000000008114908115612169575b811561213f575b5015158152f35b7f01ffc9a70000000000000000000000000000000000000000000000000000000091501483612138565b7f5b5e139f0000000000000000000000000000000000000000000000000000000081149150612131565b6008548110156121ce576003906008600052027ff3f7a9fe364faab93b216da50a3214154f22a0a2b415b23a84c8169e8b636ee30190600090565b634e487b7160e01b600052603260045260246000fd5b60005b8381106121f75750506000910152565b81810151838201526020016121e7565b90601f19601f602093612225815180928187528780880191016121e4565b0116010190565b6004359073ffffffffffffffffffffffffffffffffffffffff8216820361224f57565b600080fd5b6024359073ffffffffffffffffffffffffffffffffffffffff8216820361224f57565b6122a19160206122908351604084526040840190612207565b920151906020818403910152612207565b90565b600319604091011261224f576004359060243590565b600319606091011261224f5773ffffffffffffffffffffffffffffffffffffffff90600435828116810361224f5791602435908116810361224f579060443590565b9181601f8401121561224f5782359167ffffffffffffffff831161224f576020838186019501011161224f57565b6007548110156121ce57600760005260021b7fa66cc928b5edb82af9bd49922954155ab7b0942694bea4ce44661d9a8736c6880190600090565b90600182811c92168015612394575b602083101461237e57565b634e487b7160e01b600052602260045260246000fd5b91607f1691612373565b6040810190811067ffffffffffffffff8211176123ba57604052565b634e487b7160e01b600052604160045260246000fd5b6060810190811067ffffffffffffffff8211176123ba57604052565b6020810190811067ffffffffffffffff8211176123ba57604052565b90601f601f19910116810190811067ffffffffffffffff8211176123ba57604052565b906040519182600082549261243f84612364565b9081845260019485811690816000146124ae575060011461246b575b505061246992500383612408565b565b9093915060005260209081600020936000915b8183106124965750506124699350820101388061245b565b8554888401850152948501948794509183019161247e565b905061246995506020935060ff1991501682840152151560051b820101388061245b565b906040516124df8161239e565b60206124f9600183956124f18161242b565b85520161242b565b910152565b67ffffffffffffffff81116123ba57601f01601f191660200190565b929192612526826124fe565b916125346040519384612408565b82948184528183011161224f578281602093846000960137010152565b1561255857565b606460405162461bcd60e51b815260206004820152601860248201527f4552433732313a20696e76616c696420746f6b656e20494400000000000000006044820152fd5b600052600260205273ffffffffffffffffffffffffffffffffffffffff604060002054166122a1811515612551565b6125fb61021082600052600260205273ffffffffffffffffffffffffffffffffffffffff60406000205416151590565b600052600460205273ffffffffffffffffffffffffffffffffffffffff6040600020541690565b1561262957565b608460405162461bcd60e51b815260206004820152602d60248201527f4552433732313a2063616c6c6572206973206e6f7420746f6b656e206f776e6560448201527f72206f7220617070726f766564000000000000000000000000000000000000006064820152fd5b1561269a57565b60405162461bcd60e51b815260206004820152603260248201527f4552433732313a207472616e7366657220746f206e6f6e20455243373231526560448201527f63656976657220696d706c656d656e74657200000000000000000000000000006064820152608490fd5b9073ffffffffffffffffffffffffffffffffffffffff80806127268461259c565b16931691838314938415612759575b508315612743575b50505090565b61274f919293506125cb565b161438808061273d565b909350600052600560205260406000208260005260205260ff604060002054169238612735565b1561278757565b608460405162461bcd60e51b815260206004820152602560248201527f4552433732313a207472616e736665722066726f6d20696e636f72726563742060448201527f6f776e65720000000000000000000000000000000000000000000000000000006064820152fd5b90612826916127ff8461259c565b9173ffffffffffffffffffffffffffffffffffffffff938493848094169485911614612780565b169182156128d457816128439161283c8661259c565b1614612780565b7fddf252ad1be2c89b69c2b068fc378daa952ba7f163c4a11628f55a4df523b3ef60008481526004602052604081207fffffffffffffffffffffffff00000000000000000000000000000000000000009081815416905583825260036020526040822060001981540190558482526040822060018154019055858252600260205284604083209182541617905580a4565b608460405162461bcd60e51b8152602060048201526024808201527f4552433732313a207472616e7366657220746f20746865207a65726f2061646460448201527f72657373000000000000000000000000000000000000000000000000000000006064820152fd5b3d15612968573d9061294e826124fe565b9161295c6040519384612408565b82523d6000602084013e565b606090565b9091600091803b15612b00576129e660209173ffffffffffffffffffffffffffffffffffffffff93856040519586809581947f150b7a02000000000000000000000000000000000000000000000000000000009b8c84523360048501528560248501526044840152608060648401526084830190612207565b0393165af190829082612aa0575b5050612a7a57612a0261293d565b80519081612a755760405162461bcd60e51b815260206004820152603260248201527f4552433732313a207472616e7366657220746f206e6f6e20455243373231526560448201527f63656976657220696d706c656d656e74657200000000000000000000000000006064820152608490fd5b602001fd5b7fffffffff00000000000000000000000000000000000000000000000000000000161490565b909192506020813d8211612af8575b81612abc60209383612408565b810103126101a45751907fffffffff000000000000000000000000000000000000000000000000000000008216820361064957509038806129f4565b3d9150612aaf565b50505050600190565b91926000929190813b15612b86576020916129e691856040519586809581947f150b7a02000000000000000000000000000000000000000000000000000000009b8c845233600485015273ffffffffffffffffffffffffffffffffffffffff80951660248501526044840152608060648401526084830190612207565b5050505050600190565b91908203918211612b9d57565b634e487b7160e01b600052601160045260246000fd5b90612bbd826124fe565b612bca6040519182612408565b828152601f19612bda82946124fe565b0190602036910137565b806000917a184f03e93ff9f4daa797ed6e38ed64bf6a1f01000000000000000080821015612d26575b506d04ee2d6d415b85acef810000000080831015612d17575b50662386f26fc1000080831015612d08575b506305f5e10080831015612cf9575b5061271080831015612cea575b506064821015612cda575b600a80921015612cd0575b600190816021612c7b828701612bb3565b95860101905b612c8d575b5050505090565b600019849101917f30313233343536373839616263646566000000000000000000000000000000008282061a835304918215612ccb57919082612c81565b612c86565b9160010191612c6a565b9190606460029104910191612c5f565b60049193920491019138612c54565b60089193920491019138612c47565b60109193920491019138612c38565b60209193920491019138612c26565b604093508104915038612c0d565b818110612d3f575050565b60008155600101612d34565b601f8260209493601f19938186528686013760008582860101520116010190565b15612d7357565b606460405162461bcd60e51b815260206004820152601760248201527f4e6f74207468652061706172746d656e74206f776e65720000000000000000006044820152fd5b15612dbe57565b606460405162461bcd60e51b815260206004820152601160248201527f496e76616c69642061706172746d656e740000000000000000000000000000006044820152fd5b15612e0957565b606460405162461bcd60e51b815260206004820152600e60248201527f496e76616c696420616d6f756e740000000000000000000000000000000000006044820152fd5b15612e5457565b606460405162461bcd60e51b815260206004820152601c60248201527f4552433732313a20746f6b656e20616c7265616479206d696e746564000000006044820152fd5b6107b2811061224f577fffffffffffffffffffffffffffffffffffffffffffffffffffffffffffff82b58301928313600116612b9d576112c0908181019182129160009384831293841590801586169082161761047d57612f1560049788612f09612f10600c9788612f098961306d565b05906130b6565b6130d2565b7ffffffffffffffffffffffffffffffffffffffffffffffffffffffffffffffffe83018381136001166130475784612f4c8561306d565b05908582029180830587149015171561305a5790612f699161309d565b61016f9080820291820503613047579084612f859205906130b6565b94611324809501948512908115169116176130345791612faa91612f0960649461306d565b0580600302906003820503613021579083612fc692059061309d565b917fffffffffffffffffffffffffffffffffffffffffffffffffffffffffffdac274830192831360011661300e57620151809283810293818504149015171561300e57505090565b906011602492634e487b7160e01b835252fd5b602483601186634e487b7160e01b835252fd5b602485601188634e487b7160e01b835252fd5b60248860118b634e487b7160e01b835252fd5b60248960118c634e487b7160e01b835252fd5b907ffffffffffffffffffffffffffffffffffffffffffffffffffffffffffffffff28201918213600116612b9d57565b81810392916000138015828513169184121617612b9d57565b91909160008382019384129112908015821691151617612b9d57565b906105b59180830292830503612b9d57565b67ffffffffffffffff81116123ba5760051b60200190565b6000198114612b9d5760010190565b80518210156121ce5760209160051b010190565b60005b825181101561316d578160005260ff6020600a81526040908160002090613149858861310b565b5160005252600020541661316557613160906130fc565b613122565b505050600090565b505050600190565b62010bd99182820192831291600092838212908015821691151617613387576226496501928262253d8c85129112908015821691151617613373578260021b60049384820581036133605762023ab1809205918281029081058303613034576003810190856003831291129080158216911516176130345790856131fa92059061309d565b600181016001811285831290801582169115161761303457610fa090808202918205036130345762164b0961323c91059186613235846130d2565b059061309d565b91601f83019285601f8512911290801582169115161761303457826050029260508405810361334d5761098f80940593848102908105850361333a5790605061328692059061309d565b94600b8405936002810190826002831291129080158216911516176133275784600c0290600c8205860361331457906132be9161309d565b967fffffffffffffffffffffffffffffffffffffffffffffffffffffffffffffffcf830192831360011661300e578260640292606484050361300e57505061330f929161330a916130b6565b6130b6565b929190565b60248360118b634e487b7160e01b835252fd5b60248260118a634e487b7160e01b835252fd5b60248760118a634e487b7160e01b835252fd5b602486601189634e487b7160e01b835252fd5b602484601187634e487b7160e01b835252fd5b602482634e487b7160e01b81526011600452fd5b602483634e487b7160e01b81526011600452fd5b6000929181546133aa81612364565b9260019180831690811561340357506001146133c7575b50505050565b90919293945060005260209081600020906000915b8583106133f257505050500190388080806133c1565b8054858401529183019181016133dc565b60ff19168452505050811515909102019150388080806133c1565b80511561358657604051613431816123d0565b604081527f4142434445464748494a4b4c4d4e4f505152535455565758595a61626364656660208201527f6768696a6b6c6d6e6f707172737475767778797a303132333435363738392b2f60408201528151600292838201809211612b9d5760038092047f3fffffffffffffffffffffffffffffffffffffffffffffffffffffffffffffff81168103612b9d576134cb908594951b612bb3565b936020850193829183518401925b8381106135355750505050510680600114613504576002146134f9575090565b600019603d91015390565b507ffffffffffffffffffffffffffffffffffffffffffffffffffffffffffffffffe81603d60001981940153015390565b85600491979293949701918251600190603f9082828260121c16880101518453828282600c1c16880101518385015382828260061c16880101518885015316850101518782015301959291906134d9565b50604051613593816123ec565b600081529056fea2646970667358221220a755806558e5b0e23f036fa2df30b8d43fc9c9cef18396873279774d85635b6764736f6c63430008110033",
  "linkReferences": {},
  "deployedLinkReferences": {}
}